:020000001628C0
:0E0006008312031321088A00200882000800DC
:1000140003208A110A128000840AA00A0319A10A83
:08002400F003031D0A28080087
:10002C00623083120313A0000130A1002830840039
:10003C003030F0000A208316860187018801850183
:10004C008312880105120F308700051EB92817305E
:10005C00A2000030A3000F30A4000030A500051E44
:10006C003C28881508128812881008108030F0007F
:10007C00803023067002031D45282208003C03181B
:10008C007628051E76288030F0008030230670021A
:10009C00031D52282208033C03185628081558281B
:1000AC00081188142208F0002308F100F00DF10D5E
:1000BC0070107008283E8400000886000230FB0097
:1000CC000430FC00BA30FD00FD0B6A28FC0B6A28DA
:1000DC00FB0B6A2800000130A202031CA3033C287E
:1000EC00051E7C2888118810081488168030F000B2
:1000FC00803025067002031D85282408003C031857
:10010C00B428051EB4288030F0008030250670021B
:10011C00031D92282408033C031C962888120816F9
:10012C002408F0002508F100F00DF10D7010700896
:10013C00283E8400000886000230FB000430FC00DE
:10014C00BA30FD00FD0BA828FC0BA828FB0BA82837
:10015C0000000130A402031CA5037C28051EB8284E
:10016C00081008122B28051A5A290330A600003053
:10017C00A7008601071E0D29051A0D2988010811F3
:10018C00081408168030F000803027067002031D1A
:10019C00D1282608003C0318F528071EF528051A57
:1001AC00F5282608F0002708F100F00DF10D70106D
:1001BC007008283E8400000886000230FB000430E2
:1001CC00FC00BA30FD00FD0BE928FC0BE928FB0B09
:1001DC00E92800000130A602031CA703C828081058
:1001EC00081586010812071E0C29051A0C298815FA
:1001FC000230FB000430FC00BA30FD00FD0B04297A
:10020C00FC0B0429FB0B04290000F9285929071AB7
:10021C005929051A592988018812881588148030A3
:10022C00F000803027067002031D1E292608003CB2
:10023C0003184229071A4229051A42292608F000F8
:10024C002708F100F00DF10D70107008283E8400A5
:10025C00000886000230FB000430FC00BA30FD00C0
:10026C00FD0B3629FC0B3629FB0B3629000001301F
:10027C00A602031CA703152988168811860188106D
:10028C00071A5929051A592908140230FB000430A1
:10029C00FC00BA30FD00FD0B5129FC0B5129FB0B66
:0C02AC00512900004629B9282B285B29A5
:0402B80017340034C3
:0402BC000F340034C7
:0402C00003340034CF
:1002C4000034003401340034023400340334003484
:1002D4000434003405340034063400340734003464
:1002E4000834003409340034103400341134003438
:1002F400123400341334003414340034153400340C
:1003040016340034173400341834003419340034EB
:1003140020340034213400342234003423340034B3
:02400E004A2F37
:00000001FF
